{
  "_format": "hh-sol-artifact-1",
  "contractName": "TicketNFT",
  "sourceName": "contracts/TicketNFT.sol",
  "abi": [
    {
      "inputs": [
        {
          "internalType": "string",
          "name": "contractName",
          "type": "string"
        },
        {
          "internalType": "string",
          "name": "contractSymbol",
          "type": "string"
        },
        {
          "internalType": "uint256",
          "name": "price",
          "type": "uint256"
        },
        {
          "internalType": "uint256",
          "name": "capacity",
          "type": "uint256"
        }
      ],
      "stateMutability": "nonpayable",
      "type": "constructor"
    },
    {
      "anonymous": false,
      "inputs": [
        {
          "indexed": true,
          "internalType": "address",
          "name": "owner",
          "type": "address"
        },
        {
          "indexed": true,
          "internalType": "address",
          "name": "approved",
          "type": "address"
        },
        {
          "indexed": true,
          "internalType": "uint256",
          "name": "tokenId",
          "type": "uint256"
        }
      ],
      "name": "Approval",
      "type": "event"
    },
    {
      "anonymous": false,
      "inputs": [
        {
          "indexed": true,
          "internalType": "address",
          "name": "owner",
          "type": "address"
        },
        {
          "indexed": true,
          "internalType": "address",
          "name": "operator",
          "type": "address"
        },
        {
          "indexed": false,
          "internalType": "bool",
          "name": "approved",
          "type": "bool"
        }
      ],
      "name": "ApprovalForAll",
      "type": "event"
    },
    {
      "anonymous": false,
      "inputs": [
        {
          "indexed": true,
          "internalType": "address",
          "name": "previousOwner",
          "type": "address"
        },
        {
          "indexed": true,
          "internalType": "address",
          "name": "newOwner",
          "type": "address"
        }
      ],
      "name": "OwnershipTransferred",
      "type": "event"
    },
    {
      "anonymous": false,
      "inputs": [
        {
          "indexed": true,
          "internalType": "address",
          "name": "from",
          "type": "address"
        },
        {
          "indexed": true,
          "internalType": "address",
          "name": "to",
          "type": "address"
        },
        {
          "indexed": true,
          "internalType": "uint256",
          "name": "tokenId",
          "type": "uint256"
        }
      ],
      "name": "Transfer",
      "type": "event"
    },
    {
      "inputs": [],
      "name": "BuyTicket",
      "outputs": [],
      "stateMutability": "payable",
      "type": "function"
    },
    {
      "inputs": [
        {
          "internalType": "address",
          "name": "to",
          "type": "address"
        },
        {
          "internalType": "uint256",
          "name": "tokenId",
          "type": "uint256"
        }
      ],
      "name": "approve",
      "outputs": [],
      "stateMutability": "nonpayable",
      "type": "function"
    },
    {
      "inputs": [
        {
          "internalType": "address",
          "name": "owner",
          "type": "address"
        }
      ],
      "name": "balanceOf",
      "outputs": [
        {
          "internalType": "uint256",
          "name": "",
          "type": "uint256"
        }
      ],
      "stateMutability": "view",
      "type": "function"
    },
    {
      "inputs": [
        {
          "internalType": "uint256",
          "name": "tokenId",
          "type": "uint256"
        }
      ],
      "name": "getApproved",
      "outputs": [
        {
          "internalType": "address",
          "name": "",
          "type": "address"
        }
      ],
      "stateMutability": "view",
      "type": "function"
    },
    {
      "inputs": [],
      "name": "getBalance",
      "outputs": [
        {
          "internalType": "uint256",
          "name": "",
          "type": "uint256"
        }
      ],
      "stateMutability": "view",
      "type": "function"
    },
    {
      "inputs": [
        {
          "internalType": "address",
          "name": "owner",
          "type": "address"
        },
        {
          "internalType": "address",
          "name": "operator",
          "type": "address"
        }
      ],
      "name": "isApprovedForAll",
      "outputs": [
        {
          "internalType": "bool",
          "name": "",
          "type": "bool"
        }
      ],
      "stateMutability": "view",
      "type": "function"
    },
    {
      "inputs": [
        {
          "internalType": "address",
          "name": "recipient",
          "type": "address"
        },
        {
          "internalType": "string",
          "name": "tokenURI",
          "type": "string"
        }
      ],
      "name": "mintNFT",
      "outputs": [
        {
          "internalType": "uint256",
          "name": "",
          "type": "uint256"
        }
      ],
      "stateMutability": "nonpayable",
      "type": "function"
    },
    {
      "inputs": [],
      "name": "name",
      "outputs": [
        {
          "internalType": "string",
          "name": "",
          "type": "string"
        }
      ],
      "stateMutability": "view",
      "type": "function"
    },
    {
      "inputs": [],
      "name": "owner",
      "outputs": [
        {
          "internalType": "address",
          "name": "",
          "type": "address"
        }
      ],
      "stateMutability": "view",
      "type": "function"
    },
    {
      "inputs": [
        {
          "internalType": "uint256",
          "name": "tokenId",
          "type": "uint256"
        }
      ],
      "name": "ownerOf",
      "outputs": [
        {
          "internalType": "address",
          "name": "",
          "type": "address"
        }
      ],
      "stateMutability": "view",
      "type": "function"
    },
    {
      "inputs": [],
      "name": "renounceOwnership",
      "outputs": [],
      "stateMutability": "nonpayable",
      "type": "function"
    },
    {
      "inputs": [
        {
          "internalType": "address",
          "name": "from",
          "type": "address"
        },
        {
          "internalType": "address",
          "name": "to",
          "type": "address"
        },
        {
          "internalType": "uint256",
          "name": "tokenId",
          "type": "uint256"
        }
      ],
      "name": "safeTransferFrom",
      "outputs": [],
      "stateMutability": "nonpayable",
      "type": "function"
    },
    {
      "inputs": [
        {
          "internalType": "address",
          "name": "from",
          "type": "address"
        },
        {
          "internalType": "address",
          "name": "to",
          "type": "address"
        },
        {
          "internalType": "uint256",
          "name": "tokenId",
          "type": "uint256"
        },
        {
          "internalType": "bytes",
          "name": "data",
          "type": "bytes"
        }
      ],
      "name": "safeTransferFrom",
      "outputs": [],
      "stateMutability": "nonpayable",
      "type": "function"
    },
    {
      "inputs": [
        {
          "internalType": "address",
          "name": "operator",
          "type": "address"
        },
        {
          "internalType": "bool",
          "name": "approved",
          "type": "bool"
        }
      ],
      "name": "setApprovalForAll",
      "outputs": [],
      "stateMutability": "nonpayable",
      "type": "function"
    },
    {
      "inputs": [
        {
          "internalType": "bytes4",
          "name": "interfaceId",
          "type": "bytes4"
        }
      ],
      "name": "supportsInterface",
      "outputs": [
        {
          "internalType": "bool",
          "name": "",
          "type": "bool"
        }
      ],
      "stateMutability": "view",
      "type": "function"
    },
    {
      "inputs": [],
      "name": "symbol",
      "outputs": [
        {
          "internalType": "string",
          "name": "",
          "type": "string"
        }
      ],
      "stateMutability": "view",
      "type": "function"
    },
    {
      "inputs": [
        {
          "internalType": "uint256",
          "name": "tokenId",
          "type": "uint256"
        }
      ],
      "name": "tokenURI",
      "outputs": [
        {
          "internalType": "string",
          "name": "",
          "type": "string"
        }
      ],
      "stateMutability": "view",
      "type": "function"
    },
    {
      "inputs": [
        {
          "internalType": "address",
          "name": "from",
          "type": "address"
        },
        {
          "internalType": "address",
          "name": "to",
          "type": "address"
        },
        {
          "internalType": "uint256",
          "name": "tokenId",
          "type": "uint256"
        }
      ],
      "name": "transferFrom",
      "outputs": [],
      "stateMutability": "nonpayable",
      "type": "function"
    },
    {
      "inputs": [
        {
          "internalType": "address",
          "name": "newOwner",
          "type": "address"
        }
      ],
      "name": "transferOwnership",
      "outputs": [],
      "stateMutability": "nonpayable",
      "type": "function"
    },
    {
      "inputs": [],
      "name": "withdrawMoney",
      "outputs": [],
      "stateMutability": "nonpayable",
      "type": "function"
    }
  ],
  "bytecode": "0x60806040523480156200001157600080fd5b5060405162003a1638038062003a16833981810160405281019062000037919062000450565b8383816000908051906020019062000051929190620001c8565b5080600190805190602001906200006a929190620001c8565b5050506200008d62000081620000fa60201b60201c565b6200010260201b60201c565b80600a8190555081600b8190555073d4a33860578de61dbabdc8bfdb98fd742fa7028e600960006101000a81548173ffffffffffffffffffffffffffffffffffffffff021916908373ffffffffffffffffffffffffffffffffffffffff1602179055505050505062000565565b600033905090565b6000600760009054906101000a900473ffffffffffffffffffffffffffffffffffffffff16905081600760006101000a81548173ffffffffffffffffffffffffffffffffffffffff021916908373ffffffffffffffffffffffffffffffffffffffff1602179055508173ffffffffffffffffffffffffffffffffffffffff168173ffffffffffffffffffffffffffffffffffffffff167f8be0079c531659141344cd1fd0a4f28419497f9722a3daafe3b4186f6b6457e060405160405180910390a35050565b828054620001d6906200052f565b90600052602060002090601f016020900481019282620001fa576000855562000246565b82601f106200021557805160ff191683800117855562000246565b8280016001018555821562000246579182015b828111156200024557825182559160200191906001019062000228565b5b50905062000255919062000259565b5090565b5b80821115620002745760008160009055506001016200025a565b5090565b6000604051905090565b600080fd5b600080fd5b600080fd5b600080fd5b6000601f19601f8301169050919050565b7f4e487b7100000000000000000000000000000000000000000000000000000000600052604160045260246000fd5b620002e18262000296565b810181811067ffffffffffffffff82111715620003035762000302620002a7565b5b80604052505050565b60006200031862000278565b9050620003268282620002d6565b919050565b600067ffffffffffffffff821115620003495762000348620002a7565b5b620003548262000296565b9050602081019050919050565b60005b838110156200038157808201518184015260208101905062000364565b8381111562000391576000848401525b50505050565b6000620003ae620003a8846200032b565b6200030c565b905082815260208101848484011115620003cd57620003cc62000291565b5b620003da84828562000361565b509392505050565b600082601f830112620003fa57620003f96200028c565b5b81516200040c84826020860162000397565b91505092915050565b6000819050919050565b6200042a8162000415565b81146200043657600080fd5b50565b6000815190506200044a816200041f565b92915050565b600080600080608085870312156200046d576200046c62000282565b5b600085015167ffffffffffffffff8111156200048e576200048d62000287565b5b6200049c87828801620003e2565b945050602085015167ffffffffffffffff811115620004c057620004bf62000287565b5b620004ce87828801620003e2565b9350506040620004e18782880162000439565b9250506060620004f48782880162000439565b91505092959194509250565b7f4e487b7100000000000000000000000000000000000000000000000000000000600052602260045260246000fd5b600060028204905060018216806200054857607f821691505b602082108114156200055f576200055e62000500565b5b50919050565b6134a180620005756000396000f3fe60806040526004361061011f5760003560e01c8063761aef78116100a0578063b88d4fde11610064578063b88d4fde146103a0578063c87b56dd146103c9578063e985e9c514610406578063eacabe1414610443578063f2fde38b146104805761011f565b8063761aef78146103005780638da5cb5b1461030a57806395d89b4114610335578063a22cb46514610360578063ac446002146103895761011f565b806323b872dd116100e757806323b872dd1461021d57806342842e0e146102465780636352211e1461026f57806370a08231146102ac578063715018a6146102e95761011f565b806301ffc9a71461012457806306fdde0314610161578063081812fc1461018c578063095ea7b3146101c957806312065fe0146101f2575b600080fd5b34801561013057600080fd5b5061014b60048036038101906101469190611f55565b6104a9565b6040516101589190611f9d565b60405180910390f35b34801561016d57600080fd5b5061017661058b565b6040516101839190612051565b60405180910390f35b34801561019857600080fd5b506101b360048036038101906101ae91906120a9565b61061d565b6040516101c09190612117565b60405180910390f35b3480156101d557600080fd5b506101f060048036038101906101eb919061215e565b610663565b005b3480156101fe57600080fd5b5061020761077b565b60405161021491906121ad565b60405180910390f35b34801561022957600080fd5b50610244600480360381019061023f91906121c8565b61078b565b005b34801561025257600080fd5b5061026d600480360381019061026891906121c8565b6107eb565b005b34801561027b57600080fd5b50610296600480360381019061029191906120a9565b61080b565b6040516102a39190612117565b60405180910390f35b3480156102b857600080fd5b506102d360048036038101906102ce919061221b565b6108bd565b6040516102e091906121ad565b60405180910390f35b3480156102f557600080fd5b506102fe610975565b005b610308610989565b005b34801561031657600080fd5b5061031f610a2c565b60405161032c9190612117565b60405180910390f35b34801561034157600080fd5b5061034a610a56565b6040516103579190612051565b60405180910390f35b34801561036c57600080fd5b5061038760048036038101906103829190612274565b610ae8565b005b34801561039557600080fd5b5061039e610afe565b005b3480156103ac57600080fd5b506103c760048036038101906103c291906123e9565b610b5c565b005b3480156103d557600080fd5b506103f060048036038101906103eb91906120a9565b610bbe565b6040516103fd9190612051565b60405180910390f35b34801561041257600080fd5b5061042d6004803603810190610428919061246c565b610cd1565b60405161043a9190611f9d565b60405180910390f35b34801561044f57600080fd5b5061046a6004803603810190610465919061254d565b610d65565b60405161047791906121ad565b60405180910390f35b34801561048c57600080fd5b506104a760048036038101906104a2919061221b565b610dd2565b005b60007f80ac58cd000000000000000000000000000000000000000000000000000000007bffffffffffffffffffffffffffffffffffffffffffffffffffffffff1916827bffffffffffffffffffffffffffffffffffffffffffffffffffffffff1916148061057457507f5b5e139f000000000000000000000000000000000000000000000000000000007bffffffffffffffffffffffffffffffffffffffffffffffffffffffff1916827bffffffffffffffffffffffffffffffffffffffffffffffffffffffff1916145b80610584575061058382610e56565b5b9050919050565b60606000805461059a906125d8565b80601f01602080910402602001604051908101604052809291908181526020018280546105c6906125d8565b80156106135780601f106105e857610100808354040283529160200191610613565b820191906000526020600020905b8154815290600101906020018083116105f657829003601f168201915b5050505050905090565b600061062882610ec0565b6004600083815260200190815260200160002060009054906101000a900473ffffffffffffffffffffffffffffffffffffffff169050919050565b600061066e8261080b565b90508073ffffffffffffffffffffffffffffffffffffffff168373ffffffffffffffffffffffffffffffffffffffff1614156106df576040517f08c379a00000000000000000000000000000000000000000000000000000000081526004016106d69061267c565b60405180910390fd5b8073ffffffffffffffffffffffffffffffffffffffff166106fe610f0b565b73ffffffffffffffffffffffffffffffffffffffff16148061072d575061072c81610727610f0b565b610cd1565b5b61076c576040517f08c379a00000000000000000000000000000000000000000000000000000000081526004016107639061270e565b60405180910390fd5b6107768383610f13565b505050565b6000610785610fcc565b47905090565b61079c610796610f0b565b8261104a565b6107db576040517f08c379a00000000000000000000000000000000000000000000000000000000081526004016107d2906127a0565b60405180910390fd5b6107e68383836110df565b505050565b61080683838360405180602001604052806000815250610b5c565b505050565b6000806002600084815260200190815260200160002060009054906101000a900473ffffffffffffffffffffffffffffffffffffffff169050600073ffffffffffffffffffffffffffffffffffffffff168173ffffffffffffffffffffffffffffffffffffffff1614156108b4576040517f08c379a00000000000000000000000000000000000000000000000000000000081526004016108ab9061280c565b60405180910390fd5b80915050919050565b60008073ffffffffffffffffffffffffffffffffffffffff168273ffffffffffffffffffffffffffffffffffffffff16141561092e576040517f08c379a00000000000000000000000000000000000000000000000000000000081526004016109259061289e565b60405180910390fd5b600360008373ffffffffffffffffffffffffffffffffffffffff1673ffffffffffffffffffffffffffffffffffffffff168152602001908152602001600020549050919050565b61097d610fcc565b6109876000611346565b565b60008061099461140c565b91509150600082346109a691906128ed565b90506000600b54670de0b6b3a764000084600a6109c39190612a7a565b6109cd91906128ed565b6109d791906128ed565b905080821015610a1c576040517f08c379a0000000000000000000000000000000000000000000000000000000008152600401610a1390612b11565b60405180910390fd5b610a253361156d565b5050505050565b6000600760009054906101000a900473ffffffffffffffffffffffffffffffffffffffff16905090565b606060018054610a65906125d8565b80601f0160208091040260200160405190810160405280929190818152602001828054610a91906125d8565b8015610ade5780601f10610ab357610100808354040283529160200191610ade565b820191906000526020600020905b815481529060010190602001808311610ac157829003601f168201915b5050505050905090565b610afa610af3610f0b565b83836115ee565b5050565b610b06610fcc565b60003390508073ffffffffffffffffffffffffffffffffffffffff166108fc610b2d61077b565b9081150290604051600060405180830381858888f19350505050158015610b58573d6000803e3d6000fd5b5050565b610b6d610b67610f0b565b8361104a565b610bac576040517f08c379a0000000000000000000000000000000000000000000000000000000008152600401610ba3906127a0565b60405180910390fd5b610bb88484848461175b565b50505050565b6060610bc982610ec0565b6000600660008481526020019081526020016000208054610be9906125d8565b80601f0160208091040260200160405190810160405280929190818152602001828054610c15906125d8565b8015610c625780601f10610c3757610100808354040283529160200191610c62565b820191906000526020600020905b815481529060010190602001808311610c4557829003601f168201915b505050505090506000610c736117b7565b9050600081511415610c89578192505050610ccc565b600082511115610cbe578082604051602001610ca6929190612b6d565b60405160208183030381529060405292505050610ccc565b610cc7846117ce565b925050505b919050565b6000600560008473ffffffffffffffffffffffffffffffffffffffff1673ffffffffffffffffffffffffffffffffffffffff16815260200190815260200160002060008373ffffffffffffffffffffffffffffffffffffffff1673ffffffffffffffffffffffffffffffffffffffff16815260200190815260200160002060009054906101000a900460ff16905092915050565b6000610d6f610fcc565b60005b600a54811015610dbc57610d866008611836565b6000610d92600861184c565b9050610d9e858261185a565b610da88185611a34565b508080610db490612b91565b915050610d72565b50610dc76008611aa8565b600a54905092915050565b610dda610fcc565b600073ffffffffffffffffffffffffffffffffffffffff168173ffffffffffffffffffffffffffffffffffffffff161415610e4a576040517f08c379a0000000000000000000000000000000000000000000000000000000008152600401610e4190612c4c565b60405180910390fd5b610e5381611346565b50565b60007f01ffc9a7000000000000000000000000000000000000000000000000000000007bffffffffffffffffffffffffffffffffffffffffffffffffffffffff1916827bffffffffffffffffffffffffffffffffffffffffffffffffffffffff1916149050919050565b610ec981611ab5565b610f08576040517f08c379a0000000000000000000000000000000000000000000000000000000008152600401610eff9061280c565b60405180910390fd5b50565b600033905090565b816004600083815260200190815260200160002060006101000a81548173ffffffffffffffffffffffffffffffffffffffff021916908373ffffffffffffffffffffffffffffffffffffffff160217905550808273ffffffffffffffffffffffffffffffffffffffff16610f868361080b565b73ffffffffffffffffffffffffffffffffffffffff167f8c5be1e5ebec7d5bd14f71427d1e84f3dd0314c0f7b2291e5b200ac8c7c3b92560405160405180910390a45050565b610fd4610f0b565b73ffffffffffffffffffffffffffffffffffffffff16610ff2610a2c565b73ffffffffffffffffffffffffffffffffffffffff1614611048576040517f08c379a000000000000000000000000000000000000000000000000000000000815260040161103f90612cb8565b60405180910390fd5b565b6000806110568361080b565b90508073ffffffffffffffffffffffffffffffffffffffff168473ffffffffffffffffffffffffffffffffffffffff16148061109857506110978185610cd1565b5b806110d657508373ffffffffffffffffffffffffffffffffffffffff166110be8461061d565b73ffffffffffffffffffffffffffffffffffffffff16145b91505092915050565b8273ffffffffffffffffffffffffffffffffffffffff166110ff8261080b565b73ffffffffffffffffffffffffffffffffffffffff1614611155576040517f08c379a000000000000000000000000000000000000000000000000000000000815260040161114c90612d4a565b60405180910390fd5b600073ffffffffffffffffffffffffffffffffffffffff168273ffffffffffffffffffffffffffffffffffffffff1614156111c5576040517f08c379a00000000000000000000000000000000000000000000000000000000081526004016111bc90612ddc565b60405180910390fd5b6111d0838383611b21565b6111db600082610f13565b6001600360008573ffffffffffffffffffffffffffffffffffffffff1673ffffffffffffffffffffffffffffffffffffffff168152602001908152602001600020600082825461122b9190612dfc565b925050819055506001600360008473ffffffffffffffffffffffffffffffffffffffff1673ffffffffffffffffffffffffffffffffffffffff16815260200190815260200160002060008282546112829190612e30565b92505081905550816002600083815260200190815260200160002060006101000a81548173ffffffffffffffffffffffffffffffffffffffff021916908373ffffffffffffffffffffffffffffffffffffffff160217905550808273ffffffffffffffffffffffffffffffffffffffff168473ffffffffffffffffffffffffffffffffffffffff167fddf252ad1be2c89b69c2b068fc378daa952ba7f163c4a11628f55a4df523b3ef60405160405180910390a4611341838383611b26565b505050565b6000600760009054906101000a900473ffffffffffffffffffffffffffffffffffffffff16905081600760006101000a81548173ffffffffffffffffffffffffffffffffffffffff021916908373ffffffffffffffffffffffffffffffffffffffff1602179055508173ffffffffffffffffffffffffffffffffffffffff168173ffffffffffffffffffffffffffffffffffffffff167f8be0079c531659141344cd1fd0a4f28419497f9722a3daafe3b4186f6b6457e060405160405180910390a35050565b6000806000600960009054906101000a900473ffffffffffffffffffffffffffffffffffffffff1673ffffffffffffffffffffffffffffffffffffffff1663feaf968c6040518163ffffffff1660e01b815260040160a06040518083038186803b15801561147957600080fd5b505afa15801561148d573d6000803e3d6000fd5b505050506040513d601f19601f820116820180604052508101906114b19190612f13565b5050509150506000600960009054906101000a900473ffffffffffffffffffffffffffffffffffffffff1673ffffffffffffffffffffffffffffffffffffffff1663313ce5676040518163ffffffff1660e01b815260040160206040518083038186803b15801561152157600080fd5b505afa158015611535573d6000803e3d6000fd5b505050506040513d601f19601f820116820180604052508101906115599190612fc7565b905081818060ff1690509350935050509091565b60006115796008611836565b6000611585600861184c565b9050600a548111156115cc576040517f08c379a00000000000000000000000000000000000000000000000000000000081526004016115c390613040565b60405180910390fd5b60006115d78261080b565b90506115e48185846110df565b8192505050919050565b8173ffffffffffffffffffffffffffffffffffffffff168373ffffffffffffffffffffffffffffffffffffffff16141561165d576040517f08c379a0000000000000000000000000000000000000000000000000000000008152600401611654906130ac565b60405180910390fd5b80600560008573ffffffffffffffffffffffffffffffffffffffff1673ffffffffffffffffffffffffffffffffffffffff16815260200190815260200160002060008473ffffffffffffffffffffffffffffffffffffffff1673ffffffffffffffffffffffffffffffffffffffff16815260200190815260200160002060006101000a81548160ff0219169083151502179055508173ffffffffffffffffffffffffffffffffffffffff168373ffffffffffffffffffffffffffffffffffffffff167f17307eab39ab6107e8899845ad3d59bd9653f200f220920489ca2b5937696c318360405161174e9190611f9d565b60405180910390a3505050565b6117668484846110df565b61177284848484611b2b565b6117b1576040517f08c379a00000000000000000000000000000000000000000000000000000000081526004016117a89061313e565b60405180910390fd5b50505050565b606060405180602001604052806000815250905090565b60606117d982610ec0565b60006117e36117b7565b90506000815111611803576040518060200160405280600081525061182e565b8061180d84611cc2565b60405160200161181e929190612b6d565b6040516020818303038152906040525b915050919050565b6001816000016000828254019250508190555050565b600081600001549050919050565b600073ffffffffffffffffffffffffffffffffffffffff168273ffffffffffffffffffffffffffffffffffffffff1614156118ca576040517f08c379a00000000000000000000000000000000000000000000000000000000081526004016118c1906131aa565b60405180910390fd5b6118d381611ab5565b15611913576040517f08c379a000000000000000000000000000000000000000000000000000000000815260040161190a90613216565b60405180910390fd5b61191f60008383611b21565b6001600360008473ffffffffffffffffffffffffffffffffffffffff1673ffffffffffffffffffffffffffffffffffffffff168152602001908152602001600020600082825461196f9190612e30565b92505081905550816002600083815260200190815260200160002060006101000a81548173ffffffffffffffffffffffffffffffffffffffff021916908373ffffffffffffffffffffffffffffffffffffffff160217905550808273ffffffffffffffffffffffffffffffffffffffff16600073ffffffffffffffffffffffffffffffffffffffff167fddf252ad1be2c89b69c2b068fc378daa952ba7f163c4a11628f55a4df523b3ef60405160405180910390a4611a3060008383611b26565b5050565b611a3d82611ab5565b611a7c576040517f08c379a0000000000000000000000000000000000000000000000000000000008152600401611a73906132a8565b60405180910390fd5b80600660008481526020019081526020016000209080519060200190611aa3929190611e46565b505050565b6000816000018190555050565b60008073ffffffffffffffffffffffffffffffffffffffff166002600084815260200190815260200160002060009054906101000a900473ffffffffffffffffffffffffffffffffffffffff1673ffffffffffffffffffffffffffffffffffffffff1614159050919050565b505050565b505050565b6000611b4c8473ffffffffffffffffffffffffffffffffffffffff16611e23565b15611cb5578373ffffffffffffffffffffffffffffffffffffffff1663150b7a02611b75610f0b565b8786866040518563ffffffff1660e01b8152600401611b97949392919061331d565b602060405180830381600087803b158015611bb157600080fd5b505af1925050508015611be257506040513d601f19601f82011682018060405250810190611bdf919061337e565b60015b611c65573d8060008114611c12576040519150601f19603f3d011682016040523d82523d6000602084013e611c17565b606091505b50600081511415611c5d576040517f08c379a0000000000000000000000000000000000000000000000000000000008152600401611c549061313e565b60405180910390fd5b805181602001fd5b63150b7a0260e01b7bffffffffffffffffffffffffffffffffffffffffffffffffffffffff1916817bffffffffffffffffffffffffffffffffffffffffffffffffffffffff191614915050611cba565b600190505b949350505050565b60606000821415611d0a576040518060400160405280600181526020017f30000000000000000000000000000000000000000000000000000000000000008152509050611e1e565b600082905060005b60008214611d3c578080611d2590612b91565b915050600a82611d3591906133da565b9150611d12565b60008167ffffffffffffffff811115611d5857611d576122be565b5b6040519080825280601f01601f191660200182016040528015611d8a5781602001600182028036833780820191505090505b5090505b60008514611e1757600182611da39190612dfc565b9150600a85611db2919061340b565b6030611dbe9190612e30565b60f81b818381518110611dd457611dd361343c565b5b60200101907effffffffffffffffffffffffffffffffffffffffffffffffffffffffffffff1916908160001a905350600a85611e1091906133da565b9450611d8e565b8093505050505b919050565b6000808273ffffffffffffffffffffffffffffffffffffffff163b119050919050565b828054611e52906125d8565b90600052602060002090601f016020900481019282611e745760008555611ebb565b82601f10611e8d57805160ff1916838001178555611ebb565b82800160010185558215611ebb579182015b82811115611eba578251825591602001919060010190611e9f565b5b509050611ec89190611ecc565b5090565b5b80821115611ee5576000816000905550600101611ecd565b5090565b6000604051905090565b600080fd5b600080fd5b60007fffffffff0000000000000000000000000000000000000000000000000000000082169050919050565b611f3281611efd565b8114611f3d57600080fd5b50565b600081359050611f4f81611f29565b92915050565b600060208284031215611f6b57611f6a611ef3565b5b6000611f7984828501611f40565b91505092915050565b60008115159050919050565b611f9781611f82565b82525050565b6000602082019050611fb26000830184611f8e565b92915050565b600081519050919050565b600082825260208201905092915050565b60005b83811015611ff2578082015181840152602081019050611fd7565b83811115612001576000848401525b50505050565b6000601f19601f8301169050919050565b600061202382611fb8565b61202d8185611fc3565b935061203d818560208601611fd4565b61204681612007565b840191505092915050565b6000602082019050818103600083015261206b8184612018565b905092915050565b6000819050919050565b61208681612073565b811461209157600080fd5b50565b6000813590506120a38161207d565b92915050565b6000602082840312156120bf576120be611ef3565b5b60006120cd84828501612094565b91505092915050565b600073ffffffffffffffffffffffffffffffffffffffff82169050919050565b6000612101826120d6565b9050919050565b612111816120f6565b82525050565b600060208201905061212c6000830184612108565b92915050565b61213b816120f6565b811461214657600080fd5b50565b60008135905061215881612132565b92915050565b6000806040838503121561217557612174611ef3565b5b600061218385828601612149565b925050602061219485828601612094565b9150509250929050565b6121a781612073565b82525050565b60006020820190506121c2600083018461219e565b92915050565b6000806000606084860312156121e1576121e0611ef3565b5b60006121ef86828701612149565b935050602061220086828701612149565b925050604061221186828701612094565b9150509250925092565b60006020828403121561223157612230611ef3565b5b600061223f84828501612149565b91505092915050565b61225181611f82565b811461225c57600080fd5b50565b60008135905061226e81612248565b92915050565b6000806040838503121561228b5761228a611ef3565b5b600061229985828601612149565b92505060206122aa8582860161225f565b9150509250929050565b600080fd5b600080fd5b7f4e487b7100000000000000000000000000000000000000000000000000000000600052604160045260246000fd5b6122f682612007565b810181811067ffffffffffffffff82111715612315576123146122be565b5b80604052505050565b6000612328611ee9565b905061233482826122ed565b919050565b600067ffffffffffffffff821115612354576123536122be565b5b61235d82612007565b9050602081019050919050565b82818337600083830152505050565b600061238c61238784612339565b61231e565b9050828152602081018484840111156123a8576123a76122b9565b5b6123b384828561236a565b509392505050565b600082601f8301126123d0576123cf6122b4565b5b81356123e0848260208601612379565b91505092915050565b6000806000806080858703121561240357612402611ef3565b5b600061241187828801612149565b945050602061242287828801612149565b935050604061243387828801612094565b925050606085013567ffffffffffffffff81111561245457612453611ef8565b5b612460878288016123bb565b91505092959194509250565b6000806040838503121561248357612482611ef3565b5b600061249185828601612149565b92505060206124a285828601612149565b9150509250929050565b600067ffffffffffffffff8211156124c7576124c66122be565b5b6124d082612007565b9050602081019050919050565b60006124f06124eb846124ac565b61231e565b90508281526020810184848401111561250c5761250b6122b9565b5b61251784828561236a565b509392505050565b600082601f830112612534576125336122b4565b5b81356125448482602086016124dd565b91505092915050565b6000806040838503121561256457612563611ef3565b5b600061257285828601612149565b925050602083013567ffffffffffffffff81111561259357612592611ef8565b5b61259f8582860161251f565b9150509250929050565b7f4e487b7100000000000000000000000000000000000000000000000000000000600052602260045260246000fd5b600060028204905060018216806125f057607f821691505b60208210811415612604576126036125a9565b5b50919050565b7f4552433732313a20617070726f76616c20746f2063757272656e74206f776e6560008201527f7200000000000000000000000000000000000000000000000000000000000000602082015250565b6000612666602183611fc3565b91506126718261260a565b604082019050919050565b6000602082019050818103600083015261269581612659565b9050919050565b7f4552433732313a20617070726f76652063616c6c6572206973206e6f7420746f60008201527f6b656e206f776e6572206e6f7220617070726f76656420666f7220616c6c0000602082015250565b60006126f8603e83611fc3565b91506127038261269c565b604082019050919050565b60006020820190508181036000830152612727816126eb565b9050919050565b7f4552433732313a2063616c6c6572206973206e6f7420746f6b656e206f776e6560008201527f72206e6f7220617070726f766564000000000000000000000000000000000000602082015250565b600061278a602e83611fc3565b91506127958261272e565b604082019050919050565b600060208201905081810360008301526127b98161277d565b9050919050565b7f4552433732313a20696e76616c696420746f6b656e2049440000000000000000600082015250565b60006127f6601883611fc3565b9150612801826127c0565b602082019050919050565b60006020820190508181036000830152612825816127e9565b9050919050565b7f4552433732313a2061646472657373207a65726f206973206e6f74206120766160008201527f6c6964206f776e65720000000000000000000000000000000000000000000000602082015250565b6000612888602983611fc3565b91506128938261282c565b604082019050919050565b600060208201905081810360008301526128b78161287b565b9050919050565b7f4e487b7100000000000000000000000000000000000000000000000000000000600052601160045260246000fd5b60006128f882612073565b915061290383612073565b9250817fffffffffffffffffffffffffffffffffffffffffffffffffffffffffffffffff048311821515161561293c5761293b6128be565b5b828202905092915050565b60008160011c9050919050565b6000808291508390505b600185111561299e5780860481111561297a576129796128be565b5b60018516156129895780820291505b808102905061299785612947565b945061295e565b94509492505050565b6000826129b75760019050612a73565b816129c55760009050612a73565b81600181146129db57600281146129e557612a14565b6001915050612a73565b60ff8411156129f7576129f66128be565b5b8360020a915084821115612a0e57612a0d6128be565b5b50612a73565b5060208310610133831016604e8410600b8410161715612a495782820a905083811115612a4457612a436128be565b5b612a73565b612a568484846001612954565b92509050818404811115612a6d57612a6c6128be565b5b81810290505b9392505050565b6000612a8582612073565b9150612a9083612073565b9250612abd7fffffffffffffffffffffffffffffffffffffffffffffffffffffffffffffffff84846129a7565b905092915050565b7f4e6f7420656e6f756768204554482e0000000000000000000000000000000000600082015250565b6000612afb600f83611fc3565b9150612b0682612ac5565b602082019050919050565b60006020820190508181036000830152612b2a81612aee565b9050919050565b600081905092915050565b6000612b4782611fb8565b612b518185612b31565b9350612b61818560208601611fd4565b80840191505092915050565b6000612b798285612b3c565b9150612b858284612b3c565b91508190509392505050565b6000612b9c82612073565b91507fffffffffffffffffffffffffffffffffffffffffffffffffffffffffffffffff821415612bcf57612bce6128be565b5b600182019050919050565b7f4f776e61626c653a206e6577206f776e657220697320746865207a65726f206160008201527f6464726573730000000000000000000000000000000000000000000000000000602082015250565b6000612c36602683611fc3565b9150612c4182612bda565b604082019050919050565b60006020820190508181036000830152612c6581612c29565b9050919050565b7f4f776e61626c653a2063616c6c6572206973206e6f7420746865206f776e6572600082015250565b6000612ca2602083611fc3565b9150612cad82612c6c565b602082019050919050565b60006020820190508181036000830152612cd181612c95565b9050919050565b7f4552433732313a207472616e736665722066726f6d20696e636f72726563742060008201527f6f776e6572000000000000000000000000000000000000000000000000000000602082015250565b6000612d34602583611fc3565b9150612d3f82612cd8565b604082019050919050565b60006020820190508181036000830152612d6381612d27565b9050919050565b7f4552433732313a207472616e7366657220746f20746865207a65726f2061646460008201527f7265737300000000000000000000000000000000000000000000000000000000602082015250565b6000612dc6602483611fc3565b9150612dd182612d6a565b604082019050919050565b60006020820190508181036000830152612df581612db9565b9050919050565b6000612e0782612073565b9150612e1283612073565b925082821015612e2557612e246128be565b5b828203905092915050565b6000612e3b82612073565b9150612e4683612073565b9250827fffffffffffffffffffffffffffffffffffffffffffffffffffffffffffffffff03821115612e7b57612e7a6128be565b5b828201905092915050565b600069ffffffffffffffffffff82169050919050565b612ea581612e86565b8114612eb057600080fd5b50565b600081519050612ec281612e9c565b92915050565b6000819050919050565b612edb81612ec8565b8114612ee657600080fd5b50565b600081519050612ef881612ed2565b92915050565b600081519050612f0d8161207d565b92915050565b600080600080600060a08688031215612f2f57612f2e611ef3565b5b6000612f3d88828901612eb3565b9550506020612f4e88828901612ee9565b9450506040612f5f88828901612efe565b9350506060612f7088828901612efe565b9250506080612f8188828901612eb3565b9150509295509295909350565b600060ff82169050919050565b612fa481612f8e565b8114612faf57600080fd5b50565b600081519050612fc181612f9b565b92915050565b600060208284031215612fdd57612fdc611ef3565b5b6000612feb84828501612fb2565b91505092915050565b7f5469636b65747320736f6c64206f75742e000000000000000000000000000000600082015250565b600061302a601183611fc3565b915061303582612ff4565b602082019050919050565b600060208201905081810360008301526130598161301d565b9050919050565b7f4552433732313a20617070726f766520746f2063616c6c657200000000000000600082015250565b6000613096601983611fc3565b91506130a182613060565b602082019050919050565b600060208201905081810360008301526130c581613089565b9050919050565b7f4552433732313a207472616e7366657220746f206e6f6e20455243373231526560008201527f63656976657220696d706c656d656e7465720000000000000000000000000000602082015250565b6000613128603283611fc3565b9150613133826130cc565b604082019050919050565b600060208201905081810360008301526131578161311b565b9050919050565b7f4552433732313a206d696e7420746f20746865207a65726f2061646472657373600082015250565b6000613194602083611fc3565b915061319f8261315e565b602082019050919050565b600060208201905081810360008301526131c381613187565b9050919050565b7f4552433732313a20746f6b656e20616c7265616479206d696e74656400000000600082015250565b6000613200601c83611fc3565b915061320b826131ca565b602082019050919050565b6000602082019050818103600083015261322f816131f3565b9050919050565b7f45524337323155524953746f726167653a2055524920736574206f66206e6f6e60008201527f6578697374656e7420746f6b656e000000000000000000000000000000000000602082015250565b6000613292602e83611fc3565b915061329d82613236565b604082019050919050565b600060208201905081810360008301526132c181613285565b9050919050565b600081519050919050565b600082825260208201905092915050565b60006132ef826132c8565b6132f981856132d3565b9350613309818560208601611fd4565b61331281612007565b840191505092915050565b60006080820190506133326000830187612108565b61333f6020830186612108565b61334c604083018561219e565b818103606083015261335e81846132e4565b905095945050505050565b60008151905061337881611f29565b92915050565b60006020828403121561339457613393611ef3565b5b60006133a284828501613369565b91505092915050565b7f4e487b7100000000000000000000000000000000000000000000000000000000600052601260045260246000fd5b60006133e582612073565b91506133f083612073565b925082613400576133ff6133ab565b5b828204905092915050565b600061341682612073565b915061342183612073565b925082613431576134306133ab565b5b828206905092915050565b7f4e487b7100000000000000000000000000000000000000000000000000000000600052603260045260246000fdfea264697066735822122093896af8b5ef1260c4ca5749a6d1fb8a7121c2658aaa947759b0e44094a152f764736f6c63430008090033",
  "linkReferences": {},
  "deployedLinkReferences": {}
}