{
  "_format": "hh-sol-artifact-1",
  "contractName": "TicketNFT",
  "sourceName": "contracts/TicketNFT.sol",
  "abi": [
    {
      "inputs": [
        {
          "internalType": "string",
          "name": "contractName",
          "type": "string"
        },
        {
          "internalType": "string",
          "name": "contractSymbol",
          "type": "string"
        },
        {
          "internalType": "uint256",
          "name": "price",
          "type": "uint256"
        },
        {
          "internalType": "uint256",
          "name": "capacity",
          "type": "uint256"
        }
      ],
      "stateMutability": "nonpayable",
      "type": "constructor"
    },
    {
      "anonymous": false,
      "inputs": [
        {
          "indexed": true,
          "internalType": "address",
          "name": "owner",
          "type": "address"
        },
        {
          "indexed": true,
          "internalType": "address",
          "name": "approved",
          "type": "address"
        },
        {
          "indexed": true,
          "internalType": "uint256",
          "name": "tokenId",
          "type": "uint256"
        }
      ],
      "name": "Approval",
      "type": "event"
    },
    {
      "anonymous": false,
      "inputs": [
        {
          "indexed": true,
          "internalType": "address",
          "name": "owner",
          "type": "address"
        },
        {
          "indexed": true,
          "internalType": "address",
          "name": "operator",
          "type": "address"
        },
        {
          "indexed": false,
          "internalType": "bool",
          "name": "approved",
          "type": "bool"
        }
      ],
      "name": "ApprovalForAll",
      "type": "event"
    },
    {
      "anonymous": false,
      "inputs": [
        {
          "indexed": true,
          "internalType": "address",
          "name": "previousOwner",
          "type": "address"
        },
        {
          "indexed": true,
          "internalType": "address",
          "name": "newOwner",
          "type": "address"
        }
      ],
      "name": "OwnershipTransferred",
      "type": "event"
    },
    {
      "anonymous": false,
      "inputs": [
        {
          "indexed": true,
          "internalType": "address",
          "name": "from",
          "type": "address"
        },
        {
          "indexed": true,
          "internalType": "address",
          "name": "to",
          "type": "address"
        },
        {
          "indexed": true,
          "internalType": "uint256",
          "name": "tokenId",
          "type": "uint256"
        }
      ],
      "name": "Transfer",
      "type": "event"
    },
    {
      "inputs": [
        {
          "internalType": "address",
          "name": "to",
          "type": "address"
        },
        {
          "internalType": "uint256",
          "name": "tokenId",
          "type": "uint256"
        }
      ],
      "name": "approve",
      "outputs": [],
      "stateMutability": "nonpayable",
      "type": "function"
    },
    {
      "inputs": [
        {
          "internalType": "address",
          "name": "owner",
          "type": "address"
        }
      ],
      "name": "balanceOf",
      "outputs": [
        {
          "internalType": "uint256",
          "name": "",
          "type": "uint256"
        }
      ],
      "stateMutability": "view",
      "type": "function"
    },
    {
      "inputs": [
        {
          "internalType": "uint256",
          "name": "quantity",
          "type": "uint256"
        }
      ],
      "name": "buyTicket",
      "outputs": [],
      "stateMutability": "payable",
      "type": "function"
    },
    {
      "inputs": [
        {
          "internalType": "uint256",
          "name": "tokenId",
          "type": "uint256"
        }
      ],
      "name": "getApproved",
      "outputs": [
        {
          "internalType": "address",
          "name": "",
          "type": "address"
        }
      ],
      "stateMutability": "view",
      "type": "function"
    },
    {
      "inputs": [],
      "name": "getBalance",
      "outputs": [
        {
          "internalType": "uint256",
          "name": "",
          "type": "uint256"
        }
      ],
      "stateMutability": "view",
      "type": "function"
    },
    {
      "inputs": [
        {
          "internalType": "address",
          "name": "owner",
          "type": "address"
        },
        {
          "internalType": "address",
          "name": "operator",
          "type": "address"
        }
      ],
      "name": "isApprovedForAll",
      "outputs": [
        {
          "internalType": "bool",
          "name": "",
          "type": "bool"
        }
      ],
      "stateMutability": "view",
      "type": "function"
    },
    {
      "inputs": [
        {
          "internalType": "address",
          "name": "recipient",
          "type": "address"
        },
        {
          "internalType": "string",
          "name": "tokenURI",
          "type": "string"
        }
      ],
      "name": "mintNFT",
      "outputs": [
        {
          "internalType": "uint256",
          "name": "",
          "type": "uint256"
        }
      ],
      "stateMutability": "nonpayable",
      "type": "function"
    },
    {
      "inputs": [],
      "name": "name",
      "outputs": [
        {
          "internalType": "string",
          "name": "",
          "type": "string"
        }
      ],
      "stateMutability": "view",
      "type": "function"
    },
    {
      "inputs": [],
      "name": "owner",
      "outputs": [
        {
          "internalType": "address",
          "name": "",
          "type": "address"
        }
      ],
      "stateMutability": "view",
      "type": "function"
    },
    {
      "inputs": [
        {
          "internalType": "uint256",
          "name": "tokenId",
          "type": "uint256"
        }
      ],
      "name": "ownerOf",
      "outputs": [
        {
          "internalType": "address",
          "name": "",
          "type": "address"
        }
      ],
      "stateMutability": "view",
      "type": "function"
    },
    {
      "inputs": [],
      "name": "renounceOwnership",
      "outputs": [],
      "stateMutability": "nonpayable",
      "type": "function"
    },
    {
      "inputs": [
        {
          "internalType": "address",
          "name": "from",
          "type": "address"
        },
        {
          "internalType": "address",
          "name": "to",
          "type": "address"
        },
        {
          "internalType": "uint256",
          "name": "tokenId",
          "type": "uint256"
        }
      ],
      "name": "safeTransferFrom",
      "outputs": [],
      "stateMutability": "nonpayable",
      "type": "function"
    },
    {
      "inputs": [
        {
          "internalType": "address",
          "name": "from",
          "type": "address"
        },
        {
          "internalType": "address",
          "name": "to",
          "type": "address"
        },
        {
          "internalType": "uint256",
          "name": "tokenId",
          "type": "uint256"
        },
        {
          "internalType": "bytes",
          "name": "data",
          "type": "bytes"
        }
      ],
      "name": "safeTransferFrom",
      "outputs": [],
      "stateMutability": "nonpayable",
      "type": "function"
    },
    {
      "inputs": [
        {
          "internalType": "address",
          "name": "operator",
          "type": "address"
        },
        {
          "internalType": "bool",
          "name": "approved",
          "type": "bool"
        }
      ],
      "name": "setApprovalForAll",
      "outputs": [],
      "stateMutability": "nonpayable",
      "type": "function"
    },
    {
      "inputs": [
        {
          "internalType": "bytes4",
          "name": "interfaceId",
          "type": "bytes4"
        }
      ],
      "name": "supportsInterface",
      "outputs": [
        {
          "internalType": "bool",
          "name": "",
          "type": "bool"
        }
      ],
      "stateMutability": "view",
      "type": "function"
    },
    {
      "inputs": [],
      "name": "symbol",
      "outputs": [
        {
          "internalType": "string",
          "name": "",
          "type": "string"
        }
      ],
      "stateMutability": "view",
      "type": "function"
    },
    {
      "inputs": [
        {
          "internalType": "uint256",
          "name": "tokenId",
          "type": "uint256"
        }
      ],
      "name": "tokenURI",
      "outputs": [
        {
          "internalType": "string",
          "name": "",
          "type": "string"
        }
      ],
      "stateMutability": "view",
      "type": "function"
    },
    {
      "inputs": [
        {
          "internalType": "address",
          "name": "from",
          "type": "address"
        },
        {
          "internalType": "address",
          "name": "to",
          "type": "address"
        },
        {
          "internalType": "uint256",
          "name": "tokenId",
          "type": "uint256"
        }
      ],
      "name": "transferFrom",
      "outputs": [],
      "stateMutability": "nonpayable",
      "type": "function"
    },
    {
      "inputs": [
        {
          "internalType": "address",
          "name": "newOwner",
          "type": "address"
        }
      ],
      "name": "transferOwnership",
      "outputs": [],
      "stateMutability": "nonpayable",
      "type": "function"
    },
    {
      "inputs": [],
      "name": "withdrawMoney",
      "outputs": [],
      "stateMutability": "nonpayable",
      "type": "function"
    }
  ],
  "bytecode": "0x60806040523480156200001157600080fd5b5060405162003ac338038062003ac3833981810160405281019062000037919062000450565b8383816000908051906020019062000051929190620001c8565b5080600190805190602001906200006a929190620001c8565b5050506200008d62000081620000fa60201b60201c565b6200010260201b60201c565b80600a8190555081600b8190555073d4a33860578de61dbabdc8bfdb98fd742fa7028e600960006101000a81548173ffffffffffffffffffffffffffffffffffffffff021916908373ffffffffffffffffffffffffffffffffffffffff1602179055505050505062000565565b600033905090565b6000600760009054906101000a900473ffffffffffffffffffffffffffffffffffffffff16905081600760006101000a81548173ffffffffffffffffffffffffffffffffffffffff021916908373ffffffffffffffffffffffffffffffffffffffff1602179055508173ffffffffffffffffffffffffffffffffffffffff168173ffffffffffffffffffffffffffffffffffffffff167f8be0079c531659141344cd1fd0a4f28419497f9722a3daafe3b4186f6b6457e060405160405180910390a35050565b828054620001d6906200052f565b90600052602060002090601f016020900481019282620001fa576000855562000246565b82601f106200021557805160ff191683800117855562000246565b8280016001018555821562000246579182015b828111156200024557825182559160200191906001019062000228565b5b50905062000255919062000259565b5090565b5b80821115620002745760008160009055506001016200025a565b5090565b6000604051905090565b600080fd5b600080fd5b600080fd5b600080fd5b6000601f19601f8301169050919050565b7f4e487b7100000000000000000000000000000000000000000000000000000000600052604160045260246000fd5b620002e18262000296565b810181811067ffffffffffffffff82111715620003035762000302620002a7565b5b80604052505050565b60006200031862000278565b9050620003268282620002d6565b919050565b600067ffffffffffffffff821115620003495762000348620002a7565b5b620003548262000296565b9050602081019050919050565b60005b838110156200038157808201518184015260208101905062000364565b8381111562000391576000848401525b50505050565b6000620003ae620003a8846200032b565b6200030c565b905082815260208101848484011115620003cd57620003cc62000291565b5b620003da84828562000361565b509392505050565b600082601f830112620003fa57620003f96200028c565b5b81516200040c84826020860162000397565b91505092915050565b6000819050919050565b6200042a8162000415565b81146200043657600080fd5b50565b6000815190506200044a816200041f565b92915050565b600080600080608085870312156200046d576200046c62000282565b5b600085015167ffffffffffffffff8111156200048e576200048d62000287565b5b6200049c87828801620003e2565b945050602085015167ffffffffffffffff811115620004c057620004bf62000287565b5b620004ce87828801620003e2565b9350506040620004e18782880162000439565b9250506060620004f48782880162000439565b91505092959194509250565b7f4e487b7100000000000000000000000000000000000000000000000000000000600052602260045260246000fd5b600060028204905060018216806200054857607f821691505b602082108114156200055f576200055e62000500565b5b50919050565b61354e80620005756000396000f3fe60806040526004361061011f5760003560e01c8063715018a6116100a0578063b88d4fde11610064578063b88d4fde146103b2578063c87b56dd146103db578063e985e9c514610418578063eacabe1414610455578063f2fde38b146104925761011f565b8063715018a6146103055780638da5cb5b1461031c57806395d89b4114610347578063a22cb46514610372578063ac4460021461039b5761011f565b806323b872dd116100e757806323b872dd1461021d57806342842e0e146102465780636352211e1461026f57806367dd74ca146102ac57806370a08231146102c85761011f565b806301ffc9a71461012457806306fdde0314610161578063081812fc1461018c578063095ea7b3146101c957806312065fe0146101f2575b600080fd5b34801561013057600080fd5b5061014b60048036038101906101469190612002565b6104bb565b604051610158919061204a565b60405180910390f35b34801561016d57600080fd5b5061017661059d565b60405161018391906120fe565b60405180910390f35b34801561019857600080fd5b506101b360048036038101906101ae9190612156565b61062f565b6040516101c091906121c4565b60405180910390f35b3480156101d557600080fd5b506101f060048036038101906101eb919061220b565b610675565b005b3480156101fe57600080fd5b5061020761078d565b604051610214919061225a565b60405180910390f35b34801561022957600080fd5b50610244600480360381019061023f9190612275565b61079d565b005b34801561025257600080fd5b5061026d60048036038101906102689190612275565b6107fd565b005b34801561027b57600080fd5b5061029660048036038101906102919190612156565b61081d565b6040516102a391906121c4565b60405180910390f35b6102c660048036038101906102c19190612156565b6108cf565b005b3480156102d457600080fd5b506102ef60048036038101906102ea91906122c8565b61097f565b6040516102fc919061225a565b60405180910390f35b34801561031157600080fd5b5061031a610a37565b005b34801561032857600080fd5b50610331610a4b565b60405161033e91906121c4565b60405180910390f35b34801561035357600080fd5b5061035c610a75565b60405161036991906120fe565b60405180910390f35b34801561037e57600080fd5b5061039960048036038101906103949190612321565b610b07565b005b3480156103a757600080fd5b506103b0610b1d565b005b3480156103be57600080fd5b506103d960048036038101906103d49190612496565b610b7b565b005b3480156103e757600080fd5b5061040260048036038101906103fd9190612156565b610bdd565b60405161040f91906120fe565b60405180910390f35b34801561042457600080fd5b5061043f600480360381019061043a9190612519565b610cf0565b60405161044c919061204a565b60405180910390f35b34801561046157600080fd5b5061047c600480360381019061047791906125fa565b610d84565b604051610489919061225a565b60405180910390f35b34801561049e57600080fd5b506104b960048036038101906104b491906122c8565b610df1565b005b60007f80ac58cd000000000000000000000000000000000000000000000000000000007bffffffffffffffffffffffffffffffffffffffffffffffffffffffff1916827bffffffffffffffffffffffffffffffffffffffffffffffffffffffff1916148061058657507f5b5e139f000000000000000000000000000000000000000000000000000000007bffffffffffffffffffffffffffffffffffffffffffffffffffffffff1916827bffffffffffffffffffffffffffffffffffffffffffffffffffffffff1916145b80610596575061059582610e75565b5b9050919050565b6060600080546105ac90612685565b80601f01602080910402602001604051908101604052809291908181526020018280546105d890612685565b80156106255780601f106105fa57610100808354040283529160200191610625565b820191906000526020600020905b81548152906001019060200180831161060857829003601f168201915b5050505050905090565b600061063a82610edf565b6004600083815260200190815260200160002060009054906101000a900473ffffffffffffffffffffffffffffffffffffffff169050919050565b60006106808261081d565b90508073ffffffffffffffffffffffffffffffffffffffff168373ffffffffffffffffffffffffffffffffffffffff1614156106f1576040517f08c379a00000000000000000000000000000000000000000000000000000000081526004016106e890612729565b60405180910390fd5b8073ffffffffffffffffffffffffffffffffffffffff16610710610f2a565b73ffffffffffffffffffffffffffffffffffffffff16148061073f575061073e81610739610f2a565b610cf0565b5b61077e576040517f08c379a0000000000000000000000000000000000000000000000000000000008152600401610775906127bb565b60405180910390fd5b6107888383610f32565b505050565b6000610797610feb565b47905090565b6107ae6107a8610f2a565b82611069565b6107ed576040517f08c379a00000000000000000000000000000000000000000000000000000000081526004016107e49061284d565b60405180910390fd5b6107f88383836110fe565b505050565b61081883838360405180602001604052806000815250610b7b565b505050565b6000806002600084815260200190815260200160002060009054906101000a900473ffffffffffffffffffffffffffffffffffffffff169050600073ffffffffffffffffffffffffffffffffffffffff168173ffffffffffffffffffffffffffffffffffffffff1614156108c6576040517f08c379a00000000000000000000000000000000000000000000000000000000081526004016108bd906128b9565b60405180910390fd5b80915050919050565b6000806108da611365565b91509150600082346108ec9190612908565b9050600084600b54670de0b6b3a764000085600a61090a9190612a95565b6109149190612908565b61091e9190612908565b6109289190612908565b90508082101561096d576040517f08c379a000000000000000000000000000000000000000000000000000000000815260040161096490612b2c565b60405180910390fd5b61097733866114c6565b505050505050565b60008073ffffffffffffffffffffffffffffffffffffffff168273ffffffffffffffffffffffffffffffffffffffff1614156109f0576040517f08c379a00000000000000000000000000000000000000000000000000000000081526004016109e790612bbe565b60405180910390fd5b600360008373ffffffffffffffffffffffffffffffffffffffff1673ffffffffffffffffffffffffffffffffffffffff168152602001908152602001600020549050919050565b610a3f610feb565b610a4960006115d5565b565b6000600760009054906101000a900473ffffffffffffffffffffffffffffffffffffffff16905090565b606060018054610a8490612685565b80601f0160208091040260200160405190810160405280929190818152602001828054610ab090612685565b8015610afd5780601f10610ad257610100808354040283529160200191610afd565b820191906000526020600020905b815481529060010190602001808311610ae057829003601f168201915b5050505050905090565b610b19610b12610f2a565b838361169b565b5050565b610b25610feb565b60003390508073ffffffffffffffffffffffffffffffffffffffff166108fc610b4c61078d565b9081150290604051600060405180830381858888f19350505050158015610b77573d6000803e3d6000fd5b5050565b610b8c610b86610f2a565b83611069565b610bcb576040517f08c379a0000000000000000000000000000000000000000000000000000000008152600401610bc29061284d565b60405180910390fd5b610bd784848484611808565b50505050565b6060610be882610edf565b6000600660008481526020019081526020016000208054610c0890612685565b80601f0160208091040260200160405190810160405280929190818152602001828054610c3490612685565b8015610c815780601f10610c5657610100808354040283529160200191610c81565b820191906000526020600020905b815481529060010190602001808311610c6457829003601f168201915b505050505090506000610c92611864565b9050600081511415610ca8578192505050610ceb565b600082511115610cdd578082604051602001610cc5929190612c1a565b60405160208183030381529060405292505050610ceb565b610ce68461187b565b925050505b919050565b6000600560008473ffffffffffffffffffffffffffffffffffffffff1673ffffffffffffffffffffffffffffffffffffffff16815260200190815260200160002060008373ffffffffffffffffffffffffffffffffffffffff1673ffffffffffffffffffffffffffffffffffffffff16815260200190815260200160002060009054906101000a900460ff16905092915050565b6000610d8e610feb565b60005b600a54811015610ddb57610da560086118e3565b6000610db160086118f9565b9050610dbd8582611907565b610dc78185611ae1565b508080610dd390612c3e565b915050610d91565b50610de66008611b55565b600a54905092915050565b610df9610feb565b600073ffffffffffffffffffffffffffffffffffffffff168173ffffffffffffffffffffffffffffffffffffffff161415610e69576040517f08c379a0000000000000000000000000000000000000000000000000000000008152600401610e6090612cf9565b60405180910390fd5b610e72816115d5565b50565b60007f01ffc9a7000000000000000000000000000000000000000000000000000000007bffffffffffffffffffffffffffffffffffffffffffffffffffffffff1916827bffffffffffffffffffffffffffffffffffffffffffffffffffffffff1916149050919050565b610ee881611b62565b610f27576040517f08c379a0000000000000000000000000000000000000000000000000000000008152600401610f1e906128b9565b60405180910390fd5b50565b600033905090565b816004600083815260200190815260200160002060006101000a81548173ffffffffffffffffffffffffffffffffffffffff021916908373ffffffffffffffffffffffffffffffffffffffff160217905550808273ffffffffffffffffffffffffffffffffffffffff16610fa58361081d565b73ffffffffffffffffffffffffffffffffffffffff167f8c5be1e5ebec7d5bd14f71427d1e84f3dd0314c0f7b2291e5b200ac8c7c3b92560405160405180910390a45050565b610ff3610f2a565b73ffffffffffffffffffffffffffffffffffffffff16611011610a4b565b73ffffffffffffffffffffffffffffffffffffffff1614611067576040517f08c379a000000000000000000000000000000000000000000000000000000000815260040161105e90612d65565b60405180910390fd5b565b6000806110758361081d565b90508073ffffffffffffffffffffffffffffffffffffffff168473ffffffffffffffffffffffffffffffffffffffff1614806110b757506110b68185610cf0565b5b806110f557508373ffffffffffffffffffffffffffffffffffffffff166110dd8461062f565b73ffffffffffffffffffffffffffffffffffffffff16145b91505092915050565b8273ffffffffffffffffffffffffffffffffffffffff1661111e8261081d565b73ffffffffffffffffffffffffffffffffffffffff1614611174576040517f08c379a000000000000000000000000000000000000000000000000000000000815260040161116b90612df7565b60405180910390fd5b600073ffffffffffffffffffffffffffffffffffffffff168273ffffffffffffffffffffffffffffffffffffffff1614156111e4576040517f08c379a00000000000000000000000000000000000000000000000000000000081526004016111db90612e89565b60405180910390fd5b6111ef838383611bce565b6111fa600082610f32565b6001600360008573ffffffffffffffffffffffffffffffffffffffff1673ffffffffffffffffffffffffffffffffffffffff168152602001908152602001600020600082825461124a9190612ea9565b925050819055506001600360008473ffffffffffffffffffffffffffffffffffffffff1673ffffffffffffffffffffffffffffffffffffffff16815260200190815260200160002060008282546112a19190612edd565b92505081905550816002600083815260200190815260200160002060006101000a81548173ffffffffffffffffffffffffffffffffffffffff021916908373ffffffffffffffffffffffffffffffffffffffff160217905550808273ffffffffffffffffffffffffffffffffffffffff168473ffffffffffffffffffffffffffffffffffffffff167fddf252ad1be2c89b69c2b068fc378daa952ba7f163c4a11628f55a4df523b3ef60405160405180910390a4611360838383611bd3565b505050565b6000806000600960009054906101000a900473ffffffffffffffffffffffffffffffffffffffff1673ffffffffffffffffffffffffffffffffffffffff1663feaf968c6040518163ffffffff1660e01b815260040160a06040518083038186803b1580156113d257600080fd5b505afa1580156113e6573d6000803e3d6000fd5b505050506040513d601f19601f8201168201806040525081019061140a9190612fc0565b5050509150506000600960009054906101000a900473ffffffffffffffffffffffffffffffffffffffff1673ffffffffffffffffffffffffffffffffffffffff1663313ce5676040518163ffffffff1660e01b815260040160206040518083038186803b15801561147a57600080fd5b505afa15801561148e573d6000803e3d6000fd5b505050506040513d601f19601f820116820180604052508101906114b29190613074565b905081818060ff1690509350935050509091565b606060008267ffffffffffffffff8111156114e4576114e361236b565b5b6040519080825280602002602001820160405280156115125781602001602082028036833780820191505090505b50905060005b838110156115ca5761152a60086118e3565b600061153660086118f9565b9050600a5481111561157d576040517f08c379a0000000000000000000000000000000000000000000000000000000008152600401611574906130ed565b60405180910390fd5b60006115888261081d565b90506115958188846110fe565b818484815181106115a9576115a861310d565b5b602002602001018181525050505080806115c290612c3e565b915050611518565b508091505092915050565b6000600760009054906101000a900473ffffffffffffffffffffffffffffffffffffffff16905081600760006101000a81548173ffffffffffffffffffffffffffffffffffffffff021916908373ffffffffffffffffffffffffffffffffffffffff1602179055508173ffffffffffffffffffffffffffffffffffffffff168173ffffffffffffffffffffffffffffffffffffffff167f8be0079c531659141344cd1fd0a4f28419497f9722a3daafe3b4186f6b6457e060405160405180910390a35050565b8173ffffffffffffffffffffffffffffffffffffffff168373ffffffffffffffffffffffffffffffffffffffff16141561170a576040517f08c379a000000000000000000000000000000000000000000000000000000000815260040161170190613188565b60405180910390fd5b80600560008573ffffffffffffffffffffffffffffffffffffffff1673ffffffffffffffffffffffffffffffffffffffff16815260200190815260200160002060008473ffffffffffffffffffffffffffffffffffffffff1673ffffffffffffffffffffffffffffffffffffffff16815260200190815260200160002060006101000a81548160ff0219169083151502179055508173ffffffffffffffffffffffffffffffffffffffff168373ffffffffffffffffffffffffffffffffffffffff167f17307eab39ab6107e8899845ad3d59bd9653f200f220920489ca2b5937696c31836040516117fb919061204a565b60405180910390a3505050565b6118138484846110fe565b61181f84848484611bd8565b61185e576040517f08c379a00000000000000000000000000000000000000000000000000000000081526004016118559061321a565b60405180910390fd5b50505050565b606060405180602001604052806000815250905090565b606061188682610edf565b6000611890611864565b905060008151116118b057604051806020016040528060008152506118db565b806118ba84611d6f565b6040516020016118cb929190612c1a565b6040516020818303038152906040525b915050919050565b6001816000016000828254019250508190555050565b600081600001549050919050565b600073ffffffffffffffffffffffffffffffffffffffff168273ffffffffffffffffffffffffffffffffffffffff161415611977576040517f08c379a000000000000000000000000000000000000000000000000000000000815260040161196e90613286565b60405180910390fd5b61198081611b62565b156119c0576040517f08c379a00000000000000000000000000000000000000000000000000000000081526004016119b7906132f2565b60405180910390fd5b6119cc60008383611bce565b6001600360008473ffffffffffffffffffffffffffffffffffffffff1673ffffffffffffffffffffffffffffffffffffffff1681526020019081526020016000206000828254611a1c9190612edd565b92505081905550816002600083815260200190815260200160002060006101000a81548173ffffffffffffffffffffffffffffffffffffffff021916908373ffffffffffffffffffffffffffffffffffffffff160217905550808273ffffffffffffffffffffffffffffffffffffffff16600073ffffffffffffffffffffffffffffffffffffffff167fddf252ad1be2c89b69c2b068fc378daa952ba7f163c4a11628f55a4df523b3ef60405160405180910390a4611add60008383611bd3565b5050565b611aea82611b62565b611b29576040517f08c379a0000000000000000000000000000000000000000000000000000000008152600401611b2090613384565b60405180910390fd5b80600660008481526020019081526020016000209080519060200190611b50929190611ef3565b505050565b6000816000018190555050565b60008073ffffffffffffffffffffffffffffffffffffffff166002600084815260200190815260200160002060009054906101000a900473ffffffffffffffffffffffffffffffffffffffff1673ffffffffffffffffffffffffffffffffffffffff1614159050919050565b505050565b505050565b6000611bf98473ffffffffffffffffffffffffffffffffffffffff16611ed0565b15611d62578373ffffffffffffffffffffffffffffffffffffffff1663150b7a02611c22610f2a565b8786866040518563ffffffff1660e01b8152600401611c4494939291906133f9565b602060405180830381600087803b158015611c5e57600080fd5b505af1925050508015611c8f57506040513d601f19601f82011682018060405250810190611c8c919061345a565b60015b611d12573d8060008114611cbf576040519150601f19603f3d011682016040523d82523d6000602084013e611cc4565b606091505b50600081511415611d0a576040517f08c379a0000000000000000000000000000000000000000000000000000000008152600401611d019061321a565b60405180910390fd5b805181602001fd5b63150b7a0260e01b7bffffffffffffffffffffffffffffffffffffffffffffffffffffffff1916817bffffffffffffffffffffffffffffffffffffffffffffffffffffffff191614915050611d67565b600190505b949350505050565b60606000821415611db7576040518060400160405280600181526020017f30000000000000000000000000000000000000000000000000000000000000008152509050611ecb565b600082905060005b60008214611de9578080611dd290612c3e565b915050600a82611de291906134b6565b9150611dbf565b60008167ffffffffffffffff811115611e0557611e0461236b565b5b6040519080825280601f01601f191660200182016040528015611e375781602001600182028036833780820191505090505b5090505b60008514611ec457600182611e509190612ea9565b9150600a85611e5f91906134e7565b6030611e6b9190612edd565b60f81b818381518110611e8157611e8061310d565b5b60200101907effffffffffffffffffffffffffffffffffffffffffffffffffffffffffffff1916908160001a905350600a85611ebd91906134b6565b9450611e3b565b8093505050505b919050565b6000808273ffffffffffffffffffffffffffffffffffffffff163b119050919050565b828054611eff90612685565b90600052602060002090601f016020900481019282611f215760008555611f68565b82601f10611f3a57805160ff1916838001178555611f68565b82800160010185558215611f68579182015b82811115611f67578251825591602001919060010190611f4c565b5b509050611f759190611f79565b5090565b5b80821115611f92576000816000905550600101611f7a565b5090565b6000604051905090565b600080fd5b600080fd5b60007fffffffff0000000000000000000000000000000000000000000000000000000082169050919050565b611fdf81611faa565b8114611fea57600080fd5b50565b600081359050611ffc81611fd6565b92915050565b60006020828403121561201857612017611fa0565b5b600061202684828501611fed565b91505092915050565b60008115159050919050565b6120448161202f565b82525050565b600060208201905061205f600083018461203b565b92915050565b600081519050919050565b600082825260208201905092915050565b60005b8381101561209f578082015181840152602081019050612084565b838111156120ae576000848401525b50505050565b6000601f19601f8301169050919050565b60006120d082612065565b6120da8185612070565b93506120ea818560208601612081565b6120f3816120b4565b840191505092915050565b6000602082019050818103600083015261211881846120c5565b905092915050565b6000819050919050565b61213381612120565b811461213e57600080fd5b50565b6000813590506121508161212a565b92915050565b60006020828403121561216c5761216b611fa0565b5b600061217a84828501612141565b91505092915050565b600073ffffffffffffffffffffffffffffffffffffffff82169050919050565b60006121ae82612183565b9050919050565b6121be816121a3565b82525050565b60006020820190506121d960008301846121b5565b92915050565b6121e8816121a3565b81146121f357600080fd5b50565b600081359050612205816121df565b92915050565b6000806040838503121561222257612221611fa0565b5b6000612230858286016121f6565b925050602061224185828601612141565b9150509250929050565b61225481612120565b82525050565b600060208201905061226f600083018461224b565b92915050565b60008060006060848603121561228e5761228d611fa0565b5b600061229c868287016121f6565b93505060206122ad868287016121f6565b92505060406122be86828701612141565b9150509250925092565b6000602082840312156122de576122dd611fa0565b5b60006122ec848285016121f6565b91505092915050565b6122fe8161202f565b811461230957600080fd5b50565b60008135905061231b816122f5565b92915050565b6000806040838503121561233857612337611fa0565b5b6000612346858286016121f6565b92505060206123578582860161230c565b9150509250929050565b600080fd5b600080fd5b7f4e487b7100000000000000000000000000000000000000000000000000000000600052604160045260246000fd5b6123a3826120b4565b810181811067ffffffffffffffff821117156123c2576123c161236b565b5b80604052505050565b60006123d5611f96565b90506123e1828261239a565b919050565b600067ffffffffffffffff8211156124015761240061236b565b5b61240a826120b4565b9050602081019050919050565b82818337600083830152505050565b6000612439612434846123e6565b6123cb565b90508281526020810184848401111561245557612454612366565b5b612460848285612417565b509392505050565b600082601f83011261247d5761247c612361565b5b813561248d848260208601612426565b91505092915050565b600080600080608085870312156124b0576124af611fa0565b5b60006124be878288016121f6565b94505060206124cf878288016121f6565b93505060406124e087828801612141565b925050606085013567ffffffffffffffff81111561250157612500611fa5565b5b61250d87828801612468565b91505092959194509250565b600080604083850312156125305761252f611fa0565b5b600061253e858286016121f6565b925050602061254f858286016121f6565b9150509250929050565b600067ffffffffffffffff8211156125745761257361236b565b5b61257d826120b4565b9050602081019050919050565b600061259d61259884612559565b6123cb565b9050828152602081018484840111156125b9576125b8612366565b5b6125c4848285612417565b509392505050565b600082601f8301126125e1576125e0612361565b5b81356125f184826020860161258a565b91505092915050565b6000806040838503121561261157612610611fa0565b5b600061261f858286016121f6565b925050602083013567ffffffffffffffff8111156126405761263f611fa5565b5b61264c858286016125cc565b9150509250929050565b7f4e487b7100000000000000000000000000000000000000000000000000000000600052602260045260246000fd5b6000600282049050600182168061269d57607f821691505b602082108114156126b1576126b0612656565b5b50919050565b7f4552433732313a20617070726f76616c20746f2063757272656e74206f776e6560008201527f7200000000000000000000000000000000000000000000000000000000000000602082015250565b6000612713602183612070565b915061271e826126b7565b604082019050919050565b6000602082019050818103600083015261274281612706565b9050919050565b7f4552433732313a20617070726f76652063616c6c6572206973206e6f7420746f60008201527f6b656e206f776e6572206e6f7220617070726f76656420666f7220616c6c0000602082015250565b60006127a5603e83612070565b91506127b082612749565b604082019050919050565b600060208201905081810360008301526127d481612798565b9050919050565b7f4552433732313a2063616c6c6572206973206e6f7420746f6b656e206f776e6560008201527f72206e6f7220617070726f766564000000000000000000000000000000000000602082015250565b6000612837602e83612070565b9150612842826127db565b604082019050919050565b600060208201905081810360008301526128668161282a565b9050919050565b7f4552433732313a20696e76616c696420746f6b656e2049440000000000000000600082015250565b60006128a3601883612070565b91506128ae8261286d565b602082019050919050565b600060208201905081810360008301526128d281612896565b9050919050565b7f4e487b7100000000000000000000000000000000000000000000000000000000600052601160045260246000fd5b600061291382612120565b915061291e83612120565b9250817fffffffffffffffffffffffffffffffffffffffffffffffffffffffffffffffff0483118215151615612957576129566128d9565b5b828202905092915050565b60008160011c9050919050565b6000808291508390505b60018511156129b957808604811115612995576129946128d9565b5b60018516156129a45780820291505b80810290506129b285612962565b9450612979565b94509492505050565b6000826129d25760019050612a8e565b816129e05760009050612a8e565b81600181146129f65760028114612a0057612a2f565b6001915050612a8e565b60ff841115612a1257612a116128d9565b5b8360020a915084821115612a2957612a286128d9565b5b50612a8e565b5060208310610133831016604e8410600b8410161715612a645782820a905083811115612a5f57612a5e6128d9565b5b612a8e565b612a71848484600161296f565b92509050818404811115612a8857612a876128d9565b5b81810290505b9392505050565b6000612aa082612120565b9150612aab83612120565b9250612ad87fffffffffffffffffffffffffffffffffffffffffffffffffffffffffffffffff84846129c2565b905092915050565b7f4e6f7420656e6f756768204554482e0000000000000000000000000000000000600082015250565b6000612b16600f83612070565b9150612b2182612ae0565b602082019050919050565b60006020820190508181036000830152612b4581612b09565b9050919050565b7f4552433732313a2061646472657373207a65726f206973206e6f74206120766160008201527f6c6964206f776e65720000000000000000000000000000000000000000000000602082015250565b6000612ba8602983612070565b9150612bb382612b4c565b604082019050919050565b60006020820190508181036000830152612bd781612b9b565b9050919050565b600081905092915050565b6000612bf482612065565b612bfe8185612bde565b9350612c0e818560208601612081565b80840191505092915050565b6000612c268285612be9565b9150612c328284612be9565b91508190509392505050565b6000612c4982612120565b91507fffffffffffffffffffffffffffffffffffffffffffffffffffffffffffffffff821415612c7c57612c7b6128d9565b5b600182019050919050565b7f4f776e61626c653a206e6577206f776e657220697320746865207a65726f206160008201527f6464726573730000000000000000000000000000000000000000000000000000602082015250565b6000612ce3602683612070565b9150612cee82612c87565b604082019050919050565b60006020820190508181036000830152612d1281612cd6565b9050919050565b7f4f776e61626c653a2063616c6c6572206973206e6f7420746865206f776e6572600082015250565b6000612d4f602083612070565b9150612d5a82612d19565b602082019050919050565b60006020820190508181036000830152612d7e81612d42565b9050919050565b7f4552433732313a207472616e736665722066726f6d20696e636f72726563742060008201527f6f776e6572000000000000000000000000000000000000000000000000000000602082015250565b6000612de1602583612070565b9150612dec82612d85565b604082019050919050565b60006020820190508181036000830152612e1081612dd4565b9050919050565b7f4552433732313a207472616e7366657220746f20746865207a65726f2061646460008201527f7265737300000000000000000000000000000000000000000000000000000000602082015250565b6000612e73602483612070565b9150612e7e82612e17565b604082019050919050565b60006020820190508181036000830152612ea281612e66565b9050919050565b6000612eb482612120565b9150612ebf83612120565b925082821015612ed257612ed16128d9565b5b828203905092915050565b6000612ee882612120565b9150612ef383612120565b9250827fffffffffffffffffffffffffffffffffffffffffffffffffffffffffffffffff03821115612f2857612f276128d9565b5b828201905092915050565b600069ffffffffffffffffffff82169050919050565b612f5281612f33565b8114612f5d57600080fd5b50565b600081519050612f6f81612f49565b92915050565b6000819050919050565b612f8881612f75565b8114612f9357600080fd5b50565b600081519050612fa581612f7f565b92915050565b600081519050612fba8161212a565b92915050565b600080600080600060a08688031215612fdc57612fdb611fa0565b5b6000612fea88828901612f60565b9550506020612ffb88828901612f96565b945050604061300c88828901612fab565b935050606061301d88828901612fab565b925050608061302e88828901612f60565b9150509295509295909350565b600060ff82169050919050565b6130518161303b565b811461305c57600080fd5b50565b60008151905061306e81613048565b92915050565b60006020828403121561308a57613089611fa0565b5b60006130988482850161305f565b91505092915050565b7f5469636b65747320736f6c64206f75742e000000000000000000000000000000600082015250565b60006130d7601183612070565b91506130e2826130a1565b602082019050919050565b60006020820190508181036000830152613106816130ca565b9050919050565b7f4e487b7100000000000000000000000000000000000000000000000000000000600052603260045260246000fd5b7f4552433732313a20617070726f766520746f2063616c6c657200000000000000600082015250565b6000613172601983612070565b915061317d8261313c565b602082019050919050565b600060208201905081810360008301526131a181613165565b9050919050565b7f4552433732313a207472616e7366657220746f206e6f6e20455243373231526560008201527f63656976657220696d706c656d656e7465720000000000000000000000000000602082015250565b6000613204603283612070565b915061320f826131a8565b604082019050919050565b60006020820190508181036000830152613233816131f7565b9050919050565b7f4552433732313a206d696e7420746f20746865207a65726f2061646472657373600082015250565b6000613270602083612070565b915061327b8261323a565b602082019050919050565b6000602082019050818103600083015261329f81613263565b9050919050565b7f4552433732313a20746f6b656e20616c7265616479206d696e74656400000000600082015250565b60006132dc601c83612070565b91506132e7826132a6565b602082019050919050565b6000602082019050818103600083015261330b816132cf565b9050919050565b7f45524337323155524953746f726167653a2055524920736574206f66206e6f6e60008201527f6578697374656e7420746f6b656e000000000000000000000000000000000000602082015250565b600061336e602e83612070565b915061337982613312565b604082019050919050565b6000602082019050818103600083015261339d81613361565b9050919050565b600081519050919050565b600082825260208201905092915050565b60006133cb826133a4565b6133d581856133af565b93506133e5818560208601612081565b6133ee816120b4565b840191505092915050565b600060808201905061340e60008301876121b5565b61341b60208301866121b5565b613428604083018561224b565b818103606083015261343a81846133c0565b905095945050505050565b60008151905061345481611fd6565b92915050565b6000602082840312156134705761346f611fa0565b5b600061347e84828501613445565b91505092915050565b7f4e487b7100000000000000000000000000000000000000000000000000000000600052601260045260246000fd5b60006134c182612120565b91506134cc83612120565b9250826134dc576134db613487565b5b828204905092915050565b60006134f282612120565b91506134fd83612120565b92508261350d5761350c613487565b5b82820690509291505056fea26469706673582212201115ca70eb185ef49b5eed4c5cd706dbe9bf4ba61d1342d3923630171a97fdbb64736f6c63430008090033",
  "linkReferences": {},
  "deployedLinkReferences": {}
}